:02000004080AE8
:1000000000000A08B4170A080000040006000501F1
:08001000040269000000000079
:1000180004150A0809480A4908B5884205D0094A5A
:10002800824202D0121A01F04DFA0748074A00210D
:10003800121A01F052FA064808BD00BF000300205A
:1000480084170A080403002004030020140D00206C
:10005800140D002070B501F045F8074B074C1E46FB
:10006800E41AA4080025A54204D056F8253098477C
:100078000135F8E770BD00BF10170A0874170A08A1
:1000880000F046B808B500F071F9BDE8084000F086
:10009800E7BF00F017BC0078B0FA80F0400970475D
:1000A800012303707047000038B50124144D214620
:1000B80006202C7001F087F800F092FE00F087FE11
:1000C80000210A46FF2000F091FD0020014601F0C2
:1000D8007AF80021204601F076F8204600F002FC6C
:1000E8002146022001F06FF8204600F0FBFB054A8C
:1000F80000231370044A2B701168044A116038BD3C
:1001080028070020140300200C0300200803002007
:10011800002008B502460346014600F0CBFB00F07C
:10012800F5FE4FF4E13100F0D7FE00F059FE4FF430
:10013800614100F049FE0020012101F033F801205F
:10014800014601F02FF80220012101F02BF80420CC
:10015800012101F027F80520012101F023F80620EC
:10016800012101F01FF80720012101F01BF80720E9
:10017800002101F028F8012000F028FDBDE8084022
:10018800FFF792BF38B5104D0124062000212C70CE
:1001980001F019F80220002101F015F800200146AD
:1001A80001F011F82046214601F00DF81220022135
:1001B80000F0F8FF054B1C70054B1A68054B1A60D8
:1001C80000232B7038BD00BF28070020140300202F
:1001D8000C0300200803002038B50124134D2046E5
:1001E80000212C7000F0EFFF0020214600F0EBFF0B
:1001F800FF228021002000F0F9FC00F0F1FD4FF40F
:10020800614100F0E1FD0A2000F06CFB042021466A
:1002180000F0D9FF064B02221A70064B1A68064BEB
:100228001A6000232B70054B1C7038BD280700206E
:10023800140300200C0300200803002020070020DE
:1002480038B5124D0124042000212C7000F0BBFFAA
:10025800FF200246014600F0C9FC0220002100F000
:10026800B2FF0020014600F0AEFF204600F03AFB46
:100278002046214600F0A7FF054B03221A70054BC4
:100288001A68054B1A6000232B7038BD2807002018
:10029800140300200C0300200803002038B50020B8
:1002A8000A4C02460125FF21257000F09FFC05201D
:1002B800294600F088FF064B04221A70054B1A687D
:1002C800054B1A600023237038BD00BF28070020A3
:1002D800140300200C0300200803002038B50C4C40
:1002E800002101250520257000F06DFF00F078FD44
:1002F80000F06DFD2846002100F065FF054B052242
:100308001A70054B1A68054B1A600023237038BD14
:1003180028070020140300200C03002008030020F5
:1003280038B50E4C0125257000F05AFD00F04FFD40
:100338000020014600F047FF2846002100F043FF57
:100348000220002100F03FFF054B06221A70054BE2
:100358001A68054B1A600023237038BD280700204F
:10036800140300200C0300200803002038B500F017
:1003780047F9774C206000F0C9FD03681B6998476E
:10038800002815DD00F0C2FD03685B699847714AD3
:10039800D2F884107F29EED8D2F880300131D054B9
:1003A800013303F07F03C2F88030C2F88410E2E71B
:1003B800694B1B78002B40F0CA80684B1B78062BD2
:1003C80000F2BD80DFE803F004283E656FABB5009E
:1003D800634A236812689B1AB3F5967F03D9BDE870
:1003E8003840FFF7CFBE5F4B1B7803B938BD5E4876
:1003F800D0F804347BB1D0F80024D21AC2F3090231
:10040800013B845CC0F8043400F080FD0368214699
:100418009B689847EBE738BD514A236812689B1AD6
:10042800524AFA2B136003D9BDE83840FFF778BF6A
:10043800122000F0E1FE002840F08980BDE8384035
:10044800FFF7CABE494B1A6823681344444A126826
:100458009B1A502B03D9BDE83840FFF7F1BE444B37
:100468001A781C4602B938BD3A48D0F8843073B1BE
:10047800D0F88020D21A02F07F02855C013BC0F8D8
:10048800843000F0ADFC294600F0A4FCECE72370B2
:1004980038BD334A236812689B1A012B57D9BDE827
:1004A8003840FFF7FBBE2E4A236812689B1AFA2BC6
:1004B80024D9BDE83840FFF711BF2E4B01221A702E
:1004C80000F08EFC03685B699847274BD3F8041447
:1004D800B1F5806F0AD2D3F8002401319854013263
:1004E800C2F30902C3F80024C3F80414D3F804348F
:1004F800B3F5806F09D21B4B01221A7000F070FC13
:1005080003681B6998470028D7DC00F069FC03687A
:100518001B69984700B138BD164B187038BD104A92
:10052800236812689B1A1E2B11D9BDE83840FFF7C3
:10053800BBBD0B4A236812689B1A322BF4E700F004
:10054800E5FCBDE8384000210B4A00F0FEBA38BD92
:100558000C0300202C07002028070020140300208B
:10056800080300201503002018030020240700209A
:10057800200700202207002018150A08134B10B581
:1005880000241C70124B01221A7000F041F8114B24
:10059800186000F0CBFD22462346062100F0CEFD70
:1005A80000F0C4FD23462246022100F0CFFD0A4B8D
:1005B8000320C3F88440C3F88040084BC3F80444C0
:1005C800C3F80044BDE8104000F04CB921070020F2
:1005D80029070020100300202C0700201803002002
:1005E80008B5024B1B681B6B019308BDD0010608B8
:1005F80008B5024B1B685B68019308BD9C0106089F
:1006080008B5024B1B685B69019308BD9C0106088D
:1006180008B5024B1B681B68019308BDB0010608AA
:1006280008B5024B1B689B68019308BDB00106081A
:1006380008B5024B1B68DB68019308BDB0010608CA
:1006480008B5024B1B681B69019308BDB001060879
:1006580008B5024B1B685B69019308BDB001060829
:1006680008B5024B1B681B6E019308BDAC01060858
:1006780008B5024B1B685B6E019308BDAC01060808
:1006880008B5024B1B689B6E019308BDAC010608B8
:1006980008B5024B1B68DB6E019308BDAC01060868
:1006A80008B5024B1B681B6F019308BDAC01060817
:1006B80008B5024B1B685B6F019308BDAC010608C7
:1006C80008B5034B1B68D3F88030019308BD0000C0
:1006D800AC01060808B5024B1B68DB69019308BD2D
:1006E800B401060808B5024B1B681B6A019308BDD4
:1006F800B401060808B5024B1B689B69019308BD45
:10070800C401060808B5024B1B681B6A019308BDA3
:10071800C401060808B5024B1B685B6A019308BD53
:10072800C401060808B5024B1B689B6A019308BD03
:10073800C401060808B5024B1B68DB6A019308BDB3
:10074800C401060808B5024B1B681B6B019308BD62
:10075800C401060808B5024B1B685B6B019308BD12
:10076800C401060808B5024B1B689B6B019308BDC2
:10077800C401060808B5024B1B681B6C019308BD31
:10078800C401060808B5024B1B68DB6C019308BD61
:10079800C401060808B5024B1B681B6D019308BD10
:1007A800C401060808B5024B1B681B68019308BD05
:1007B800D801060808B5024B1B685B68019308BDA1
:1007C800D801060808B5024B1B681B69019308BDD0
:1007D800D801060808B5024B1B685B69019308BD80
:1007E800D801060808B5024B1B689B69019308BD30
:1007F800D801060808B5024B1B68DB69019308BDE0
:10080800D801060808B5024B1B681B6A019308BD8E
:10081800D801060808B5024B1B685B68019308BD40
:10082800A801020808B5024B1B689B68019308BD24
:10083800A801020808B5024B1B68DB68019308BDD4
:10084800A801020808B5024B1B689B69019308BD03
:10085800A801020808B5024B1B68DB69019308BDB3
:10086800A801020808B5024B1B685B68019308BD24
:10087800A401060808B5024B1B685B69019308BD13
:10088800A401060808B5024B1B685B6E019308BDFE
:10089800A401060808B5024B1B689B6E019308BDAE
:1008A800A401060808B5024B1B681B69019308BD23
:1008B800C801060808B5024B1B689B69019308BD6F
:1008C800C801060808B5024B1B685B68019308BDA0
:1008D800A001060808B5024B1B685B6A019308BDB6
:1008E800A00106080021FFF7C5BF0000034B002246
:1008F8001A70034B01221A70704700BFB40700201A
:10090800B5070020034B00221A70034B01221A700E
:10091800704700BFB6070020B707002010B58368EE
:10092800044613B1014603229847204610BD000033
:10093800034B00221A70034B01221A70704700BF44
:10094800B8070020B9070020034B00221A70034B98
:1009580001221A70704700BFBA070020BB070020A9
:100968007047F8B5064615460C468F18BC4206D0A7
:10097800336830469B6814F8011B9847F6E7284609
:10098800F8BD007C0022FFF76BBE007C0021FFF75A
:100998006FBE007C0021FFF773BE007C0021FFF7CB
:1009A80077BE007C0021FFF77BBE10B50446FFF739
:1009B80070FB204610BD000010B504464FF47A7253
:1009C8008260054A002343600260017408461946A4
:1009D800FFF776FE204610BD40150A08007C00216E
:1009E800FFF766BE704710B50446FFF752FB204676
:1009F80010BDF8B50F4600F10806051D002416F8CD
:100A0800011D38460A2200F09EF8AE42044407D081
:100A1800002CF4D038462E2100F05AF80444EEE7B2
:100A28002046F8BD10B59DF8084044EA032343EA80
:100A3800024242EA016104234160037510BD0000CF
:100A480037B50446044D05609DF818500095FFF72A
:100A5800E9FF204603B030BD68150A08014A024B79
:100A68001A60704733160A08BC070020034B00229F
:100A78001A70034B01221A70704700BFC00700208C
:100A8800C1070020F8B506460D468F180024BD4260
:100A98000CD0336830469B6815F8011B984700282E
:100AA80001DB0444F3E7002C08BF04462046F8BDE8
:100AB80070B505460C46084649B100F016FD2B688E
:100AC800024621462846BDE87040DB68184770BDDD
:100AD80003689B68184738B50D210546FFF7F8FFEE
:100AE8000A2104462846FFF7F3FF204438BD012AAF
:100AF80098BF0A2230B50B468BB000218DF8241020
:100B08000DF12304B3FBF2F505FB1233DBB2092B1D
:100B180094BF30333733DBB2214604F801392B4612
:100B2800002DEFD1FFF7C4FF0BB030BD10B52AB9C7
:100B3800BDE810400368C9B29B681847D2B2BDE847
:100B48001040FFF7D4BFFFF7F1BF0CB42DE9F04315
:100B580087B000AF07F1380454F8049B05460E46E9
:100B6800381D14214A4623463C60FFF7B3FE13287C
:100B7800014605D82846391DFFF79AFF044613E0B9
:100B880000F1080323F00703E846ADEB030D6846C0
:100B9800234601314A463C60FFF79CFE69462846D9
:100BA800FFF786FF0446C5461EB12846FFF793FFA8
:100BB800044420461C37BD46BDE8F04302B07047E8
:100BC80010B50446FFF7AAFE204610BD10B504462E
:100BD800FFF738FE844208D01CB1BDE81040FFF78B
:100BE80021BEBDE81040FFF725BE10BD70B5054613
:100BF8000E461446FFF726FE50B144EA062040EAA6
:100C08000540FFF707FEBDE87040E720FFF722BE6A
:100C180070BD00000348002383600349034A00F0C5
:100C280079BB00BFC4070020C90B0A0804030020D1
:100C3800034B00221A70034B01221A70704700BF41
:100C4800D4070020D5070020704710B50446FFF7E9
:100C580020FA204610BD000070B504460E46074B2A
:100C68000025036040F80C5FFFF7BAFC3046267198
:100C7800FFF730FDA560204670BD00BF68160A0862
:100C88000079FFF72FBD0000034B00221A70034BB9
:100C980001221A70704700BFD6070020D70700202E
:100CA800034B00221A70034B01221A70704700BFD1
:100CB800D8070020D9070020034B00201870034BE9
:100CC80001221A70FFF7CEBDDA070020DB070020EB
:100CD800034B00221A70034B01221A70704700BFA1
:100CE800DC070020DD070020054B00221A70054BA9
:100CF80001221A70044B1A68044B1A60704700BF2F
:100D0800E4070020E507002000030020E00700209A
:100D1800034B00221A70034B01221A70704700BF60
:100D2800E6070020E7070020034B00221A70034B58
:100D380001221A70704700BFE8070020E907002069
:100D4800704741747047007CFFF714BD007CFFF7C3
:100D5800E9BC007CFFF7F6BC007CFFF7EBBC007C2D
:100D6800FFF7F8BC10B50446FFF793F9204610BD0D
:100D780070B5457C04460E4625B9007CFFF7FAFCA1
:100D8800002805DD207C3146BDE87040FFF7C2BC75
:100D9800284670BD10B50446002060604FF47A7094
:100DA800A06006482174206001206074084611463E
:100DB8001A46FFF79FFC204610BD00BFA8160A0878
:100DC800007C0023FFF7DEBC0022FFF7F9BF007CA0
:100DD800FFF798BC007CFFF7DDBC007CFFF7C2BCC6
:100DE80038B50C4D296811F0010411D12846FFF7D8
:100DF80052F968B12146084A084B0948FFF7CAFF6B
:100E08002846FFF74DF906480649074A00F082FAD6
:100E1800034838BD84080020880800200008002006
:100E2800EC070020490D0A0804030020034B0022A8
:100E38001A70034B01221A70704700BF0C0900207A
:100E48000D090020034B00221A70034B01221A706F
:100E5800704700BF0E0900200F0900204174704739
:100E68007047007C0021FFF7BDBC007C0121FFF723
:100E7800B9BC007CFFF7AEBC007CFFF7A3BC38B55B
:100E88000446007C0D46FFF7A5FC002801DC607CC9
:100E980020B1207C2946FFF7ADFC012038BD007C3D
:100EA800FFF7B0BC10B50446FFF7F3F8204610BDB5
:100EB80010B50446002343604FF47A738360054BF2
:100EC800017403600123437408461146FFF76AFC66
:100ED800204610BDD8160A08007C0022FFF76ABC1D
:100EE80010B504460021142200F0F7FA054B2046FD
:100EF8006360054BE36040F2011323818123238261
:100F080010BD00BF950900201409002030B50E4D12
:100F180087B001A8FFF7E4FF296811F0010410D198
:100F28002846FFF7B8F860B1214601AA0748FFF73D
:100F3800BFFF2846FFF7B4F804480549054A00F002
:100F4800E9F9024807B030BD10090020980A0020CE
:100F5800690E0A080403002010B504460021142273
:100F680000F0BBFA054B20466360054BE36040F296
:100F7800011323818123238210BD00BF480B002069
:100F8800B00A002010B50E4C86B001A8FFF7E4FFA8
:100F98002368DB0710D42046FFF77DF860B10121F4
:100FA80001AA0848FFF784FF2046FFF779F80548AB
:100FB8000549064A00F0AEF9024806B010BD00BF68
:100FC800AC0A0020340B0020690E0A080403002034
:100FD8007047002001460246FFF764BC0348044BF3
:100FE8000449054A036000F095B900BF4C0C002085
:100FF80008170A08D90F0A080403002008B5144B7B
:1010080033B1FFF783FF03681B699847002816DC94
:10101800104B33B1FFF7E4FE03681B6998470028BB
:1010280010DC0D4B0BB1AFF300800C4B7BB1FFF71D
:10103800A9FF03681B699847002806DC08BDAFF3C1
:101048000080E5E7AFF30080EBE7AFF3008008BD71
:101058000000000000000000000000000000000088
:1010680008B5FFF7CBFFFFF7CBFA014B186008BDB7
:10107800580C00200248034A0349121A00F022BA09
:10108800004002400440024080170A0800207047D0
:1010980037B5436804460A2B0FD0502B1DD1104B8F
:1010A8001D68D5B1037D4FF4007100938068E26834
:1010B80004F11003A84748B90FE080684FF40071A5
:1010C800E26804F11003FFF7E1FF38B10021204680
:1010D8000A46FFF7DFFB012000E0002003B030BD27
:1010E800500C002038B50C4C0C4D23685A1B534249
:1010F80053410B4A137013B9FFF7BCFF2560094B26
:101108001BB1FFF775FAAFF30080BDE83840064819
:101118000021FFF7B7BB00BF004002401E1C279A02
:10112800540C00200000000099100A0808B5024B72
:101138001B681B68019308BD9C01020808B5024B97
:101148001B685B68019308BD9C01020808B5024B47
:101158001B689B68019308BD9C01020810B50446F2
:101168000F48FFF78DFD28B1A4F10D03022B01D81C
:10117800002010BD00F06CF8FFF730FC08B1012C1E
:10118800F6D9FFF72DFEFFF728FE18B1A4F11203D8
:10119800012BEDD9172C8CBF0020012010BD00BFFA
:1011A800940C0020172838B505460C460AD8FF29A4
:1011B80008D0FFF7D3FF28B128462146BDE83840BC
:1011C800FFF72EBA38BD38B504460D46FFF730FA9A
:1011D800FF2810D078B1831EDBB2012B0BD906286B
:1011E80009D02046FFF7BAFF28B120462946BDE8B6
:1011F8003840FFF725BA38BD10B50446FFF718FA8E
:101208000438C0B2012808D92046FFF7A7FF20B14B
:101218002046BDE81040FFF71BBA002010BD0000B3
:10122800034B00221A70034B01221A70704700BF4B
:10123800550C0020560C0020034B00221A70034B5B
:1012480001221A70704700BF5C0C00205D0C002062
:1012580038B50B4D296811F001040FD12846FEF767
:101268001AFF58B121460748FFF7A6FB2846FEF7A4
:1012780017FF04480449054A00F04CF8014838BDF6
:10128800600C0020640C002069090A08040300208F
:1012980013B5084C002100910A460B462046FFF77B
:1012A800CFFB20460449054A02B0BDE8104000F0D3
:1012B80031B800BF780C0020ED090A0804030020AB
:1012C800F8B50E4B00210E4E19700E4B01270E4D2E
:1012D8000E4C30461F70FFF7BFFC30460C4E2246BE
:1012E800294600F017F839463046FFF7B5FC304676
:1012F80029462246BDE8F84000F00CB8900C0020C2
:10130800940C0020910C0020510C0A0804030020C2
:10131800A40C002003460846194600F0C5B8000092
:10132800244B1A68D0075CBF01221A60224B1A6846
:10133800D1075CBF01221A60204B1A68D2075CBF34
:1013480001221A601E4B1A68D0075CBF01221A607E
:101358001C4B1A68D1075CBF01221A601A4B1A6825
:10136800D2075CBF01221A60184B1A68D0075CBF0D
:1013780001221A60164B1A68D1075CBF01221A6055
:10138800144B1A68D2075CBF01221A60124B1A6804
:10139800D0075CBF01221A60104B1A68D1075CBFE6
:1013A80001221A600E4B1A68D2075CBF01221A602C
:1013B800704700BFE00C0020DC0C0020D80C002097
:1013C800D40C0020D00C0020CC0C0020C80C00202D
:1013D800C40C0020C00C0020BC0C0020B80C00205D
:1013E800B40C0020244B1A68D0075CBF01221A6095
:1013F800224B1A68D1075CBF01221A60204B1A6879
:10140800D2075CBF01221A601E4B1A68D0075CBF66
:1014180001221A601C4B1A68D1075CBF01221A60AE
:101428001A4B1A68D2075CBF01221A60184B1A6857
:10143800D0075CBF01221A60164B1A68D1075CBF3F
:1014480001221A60144B1A68D2075CBF01221A6085
:10145800124B1A68D0075CBF01221A60104B1A6839
:10146800D1075CBF01221A600E4B1A68D2075CBF15
:1014780001221A60704700BF100D00200C0D0020DB
:10148800080D0020040D0020000D0020FC0C002099
:10149800F80C0020F40C0020F00C0020EC0C0020CC
:1014A800E80C0020E40C002038B5054604480C463A
:1014B800134620B1022029462246AFF3008038BDEA
:1014C8000000000010B5431E0A44914204D011F8F0
:1014D800014B03F8014FF8E710BD0346024493425D
:1014E80002D003F8011BFAE77047034613F8012BF3
:1014F800002AFBD1181A0138704700001D000A089D
:101508005D000A0889000A088D000A08000000002A
:101518004455434320697320696E20616E20696ECB
:1015280076616C69642073746174652E0000000034
:10153800000000000000000069090A08B3090A0851
:101548008B090A086B090A0893090A089B090A0803
:10155800A3090A08AB090A080000000000000000FF
:10156800FB090A08ED090A08EF090A08000000004B
:1015780066006C6E00666E00636F64650064657477
:1015880061696C000D0A00253031307520005D203E
:10159800002564002C200028293A2000205B0063E5
:1015A8006F6465203D200025690064657461696C7D
:1015B80073203D2000626175640053657269616C37
:1015C8000055534253657269616C310074797065D6
:1015D80000706172616D00636D6400696400686E1B
:1015E80064007374726D0066696C74006C766C00CC
:1015F80061646448616E646C65720072656D6F76D3
:101608006548616E646C657200656E756D48616EE3
:10161800646C657273004A534F4E53747265616D02
:101628004C6F6748616E646C657200617070006E23
:101638006F6E6500747261636500696E666F00772E
:1016480061726E006572726F720070616E6963001C
:10165800616C6C0000000000000000000000000049
:10166800510C0A08530C0A085A00252B3033643AE7
:10167800253032750025592D256D2D2564542548B2
:101688003A254D3A2553257A0061736374696D656F
:101698000000000000000000000000000000000042
:1016A800490D0A086D0D0A08790D0A088D0A0A08FD
:1016B800550D0A08610D0A085B0D0A08670D0A082E
:1016C8004B0D0A084F0D0A0800000000000000003A
:1016D800690E0A08AD0E0A08870E0A088D0A0A085C
:1016E800810E0A086B0E0A08730E0A08A70E0A086C
:1016F8007B0E0A08650E0A080000000000000000C2
:10170800DB0F0A080000000085050A08F5080A082A
:101718000D090A0839090A0851090A08650A0A0858
:10172800750A0A081D0C0A08390C0A08910C0A08DF
:10173800A90C0A08C10C0A08D90C0A08F10C0A08F5
:10174800190D0A08310D0A08350E0A084D0E0A0847
:10175800E50F0A0829120A0841120A0899120A080C
:10176800C9120A0829130A08ED130A080000000024
:08177800000000000000000069
:041780000000000065
:0417840091160A08A8
:10178800FFFFFFFF06000200000001020304050638
:101798000708090A0B0C0D0E0F1011121314151659
:0C17A8001718191A1B1C1D1E1F202800FA
:0417B400785634121D
:04000005080A0018CD
:00000001FF
